{
  "contractName": "Certification",
  "abi": [
    {
      "constant": true,
      "inputs": [],
      "name": "owner",
      "outputs": [
        {
          "name": "",
          "type": "address"
        }
      ],
      "payable": false,
      "stateMutability": "view",
      "type": "function"
    },
    {
      "constant": true,
      "inputs": [],
      "name": "institution",
      "outputs": [
        {
          "name": "",
          "type": "address"
        }
      ],
      "payable": false,
      "stateMutability": "view",
      "type": "function"
    },
    {
      "inputs": [
        {
          "name": "_institution",
          "type": "address"
        }
      ],
      "payable": false,
      "stateMutability": "nonpayable",
      "type": "constructor"
    },
    {
      "anonymous": false,
      "inputs": [
        {
          "indexed": false,
          "name": "_certificateId",
          "type": "bytes32"
        }
      ],
      "name": "certificateGenerated",
      "type": "event"
    },
    {
      "anonymous": false,
      "inputs": [
        {
          "indexed": false,
          "name": "_certificateId",
          "type": "bytes32"
        }
      ],
      "name": "certificateRevoked",
      "type": "event"
    },
    {
      "constant": false,
      "inputs": [
        {
          "name": "_id",
          "type": "string"
        },
        {
          "name": "_candidate_name",
          "type": "string"
        },
        {
          "name": "_course_index",
          "type": "uint256"
        },
        {
          "name": "_creation_date",
          "type": "string"
        }
      ],
      "name": "generateCertificate",
      "outputs": [],
      "payable": false,
      "stateMutability": "nonpayable",
      "type": "function"
    },
    {
      "constant": true,
      "inputs": [
        {
          "name": "_id",
          "type": "string"
        }
      ],
      "name": "getData",
      "outputs": [
        {
          "name": "",
          "type": "string"
        },
        {
          "name": "",
          "type": "string"
        },
        {
          "name": "",
          "type": "string"
        },
        {
          "name": "",
          "type": "string"
        },
        {
          "name": "",
          "type": "string"
        },
        {
          "name": "",
          "type": "string"
        },
        {
          "name": "",
          "type": "bool"
        }
      ],
      "payable": false,
      "stateMutability": "view",
      "type": "function"
    },
    {
      "constant": false,
      "inputs": [
        {
          "name": "_id",
          "type": "string"
        }
      ],
      "name": "revokeCertificate",
      "outputs": [],
      "payable": false,
      "stateMutability": "nonpayable",
      "type": "function"
    }
  ],
  "bytecode": "0x60806040523480156200001157600080fd5b50604051602080620019308339810180604052620000339190810190620000d1565b336000806101000a81548173ffffffffffffffffffffffffffffffffffffffff021916908373ffffffffffffffffffffffffffffffffffffffff16021790555080600160006101000a81548173ffffffffffffffffffffffffffffffffffffffff021916908373ffffffffffffffffffffffffffffffffffffffff1602179055505062000131565b6000620000c982516200011d565b905092915050565b600060208284031215620000e457600080fd5b6000620000f484828501620000bb565b91505092915050565b600073ffffffffffffffffffffffffffffffffffffffff82169050919050565b60006200012a82620000fd565b9050919050565b6117ef80620001416000396000f30060806040526004361061006d576000357c0100000000000000000000000000000000000000000000000000000000900463ffffffff168063142e1542146100725780638da5cb5b1461009b578063a0e1995e146100c6578063ae55c888146100ef578063d1384eb614610132575b600080fd5b34801561007e57600080fd5b50610099600480360361009491908101906111bf565b61015d565b005b3480156100a757600080fd5b506100b06103f0565b6040516100bd91906114e2565b60405180910390f35b3480156100d257600080fd5b506100ed60048036036100e891908101906112c3565b610415565b005b3480156100fb57600080fd5b50610116600480360361011191908101906111bf565b6108ee565b6040516101299796959493929190611533565b60405180910390f35b34801561013e57600080fd5b50610147610e70565b6040516101549190611518565b60405180910390f35b6000606060011515600160009054906101000a900473ffffffffffffffffffffffffffffffffffffffff1673ffffffffffffffffffffffffffffffffffffffff1663b350ce3c336040518263ffffffff167c01000000000000000000000000000000000000000000000000000000000281526004016101dc91906114e2565b602060405180830381600087803b1580156101f657600080fd5b505af115801561020a573d6000803e3d6000fd5b505050506040513d601f19601f8201168201806040525061022e9190810190611196565b1515141515610272576040517f08c379a0000000000000000000000000000000000000000000000000000000008152600401610269906115cc565b60405180910390fd5b61027b83610e96565b91506002600083600019166000191681526020019081526020016000206002018054600181600116156101000203166002900480601f01602080910402602001604051908101604052809291908181526020018280546001816001161561010002031660029004801561032f5780601f106103045761010080835404028352916020019161032f565b820191906000526020600020905b81548152906001019060200180831161031257829003601f168201915b50505050509050600081511415151561037d576040517f08c379a00000000000000000000000000000000000000000000000000000000081526004016103749061160c565b60405180910390fd5b600160026000846000191660001916815260200190815260200160002060060160006101000a81548160ff0219169083151502179055507f222e6f0e7dd20e77993dc592413db91f20cfba6c1833b91ee72aeeb0c2dc99ec826040516103e391906114fd565b60405180910390a1505050565b6000809054906101000a900473ffffffffffffffffffffffffffffffffffffffff1681565b6000606080606080606080600060011515600160009054906101000a900473ffffffffffffffffffffffffffffffffffffffff1673ffffffffffffffffffffffffffffffffffffffff1663b350ce3c336040518263ffffffff167c010000000000000000000000000000000000000000000000000000000002815260040161049d91906114e2565b602060405180830381600087803b1580156104b757600080fd5b505af11580156104cb573d6000803e3d6000fd5b505050506040513d601f19601f820116820180604052506104ef9190810190611196565b1515141515610533576040517f08c379a000000000000000000000000000000000000000000000000000000000815260040161052a906115cc565b60405180910390fd5b61053c8c610e96565b97506002600089600019166000191681526020019081526020016000206002018054600181600116156101000203166002900480601f0160208091040260200160405190810160405280929190818152602001828054600181600116156101000203166002900480156105f05780601f106105c5576101008083540402835291602001916105f0565b820191906000526020600020905b8154815290600101906020018083116105d357829003601f168201915b505050505096506000875114151561063d576040517f08c379a0000000000000000000000000000000000000000000000000000000008152600401610634906115ec565b60405180910390fd5b600160009054906101000a900473ffffffffffffffffffffffffffffffffffffffff1673ffffffffffffffffffffffffffffffffffffffff16637c0edcdf336040518263ffffffff167c01000000000000000000000000000000000000000000000000000000000281526004016106b491906114e2565b600060405180830381600087803b1580156106ce57600080fd5b505af11580156106e2573d6000803e3d6000fd5b505050506040513d6000823e3d601f19601f8201168201806040525061070b9190810190611200565b955095509550955060008a10158015610724575082518a105b1515610765576040517f08c379a000000000000000000000000000000000000000000000000000000000815260040161075c9061162c565b60405180910390fd5b828a81518110151561077357fe5b906020019060200201516000015191506000905060e0604051908101604052808c81526020018381526020018a8152602001878152602001868152602001858152602001821515815250600260008a6000191660001916815260200190815260200160002060008201518160000190805190602001906107f4929190610ec1565b506020820151816001019080519060200190610811929190610ec1565b50604082015181600201908051906020019061082e929190610ec1565b50606082015181600301908051906020019061084b929190610ec1565b506080820151816004019080519060200190610868929190610ec1565b5060a0820151816005019080519060200190610885929190610ec1565b5060c08201518160060160006101000a81548160ff0219169083151502179055509050507ff54e0f0055ffae318a21890316ed523f8a60aa59aaa279dfdcae7176155ec0db886040516108d891906114fd565b60405180910390a1505050505050505050505050565b606080606080606080600080610902610f41565b606061090d8b610e96565b925060026000846000191660001916815260200190815260200160002060e06040519081016040529081600082018054600181600116156101000203166002900480601f0160208091040260200160405190810160405280929190818152602001828054600181600116156101000203166002900480156109cf5780601f106109a4576101008083540402835291602001916109cf565b820191906000526020600020905b8154815290600101906020018083116109b257829003601f168201915b50505050508152602001600182018054600181600116156101000203166002900480601f016020809104026020016040519081016040528092919081815260200182805460018160011615610100020316600290048015610a715780601f10610a4657610100808354040283529160200191610a71565b820191906000526020600020905b815481529060010190602001808311610a5457829003601f168201915b50505050508152602001600282018054600181600116156101000203166002900480601f016020809104026020016040519081016040528092919081815260200182805460018160011615610100020316600290048015610b135780601f10610ae857610100808354040283529160200191610b13565b820191906000526020600020905b815481529060010190602001808311610af657829003601f168201915b50505050508152602001600382018054600181600116156101000203166002900480601f016020809104026020016040519081016040528092919081815260200182805460018160011615610100020316600290048015610bb55780601f10610b8a57610100808354040283529160200191610bb5565b820191906000526020600020905b815481529060010190602001808311610b9857829003601f168201915b50505050508152602001600482018054600181600116156101000203166002900480601f016020809104026020016040519081016040528092919081815260200182805460018160011615610100020316600290048015610c575780601f10610c2c57610100808354040283529160200191610c57565b820191906000526020600020905b815481529060010190602001808311610c3a57829003601f168201915b50505050508152602001600582018054600181600116156101000203166002900480601f016020809104026020016040519081016040528092919081815260200182805460018160011615610100020316600290048015610cf95780601f10610cce57610100808354040283529160200191610cf9565b820191906000526020600020905b815481529060010190602001808311610cdc57829003601f168201915b505050505081526020016006820160009054906101000a900460ff16151515158152505091506002600084600019166000191681526020019081526020016000206002018054600181600116156101000203166002900480601f016020809104026020016040519081016040528092919081815260200182805460018160011615610100020316600290048015610dd15780601f10610da657610100808354040283529160200191610dd1565b820191906000526020600020905b815481529060010190602001808311610db457829003601f168201915b505050505090506000815114151515610e1f576040517f08c379a0000000000000000000000000000000000000000000000000000000008152600401610e169061160c565b60405180910390fd5b816000015182602001518360400151846060015185608001518660a001518760c001518696508595508494508393508292508191509950995099509950995099509950505050919395979092949650565b600160009054906101000a900473ffffffffffffffffffffffffffffffffffffffff1681565b60006060829050600081511415610eb35760006001029150610ebb565b602083015191505b50919050565b828054600181600116156101000203166002900490600052602060002090601f016020900481019282601f10610f0257805160ff1916838001178555610f30565b82800160010185558215610f30579182015b82811115610f2f578251825591602001919060010190610f14565b5b509050610f3d9190610f81565b5090565b60e0604051908101604052806060815260200160608152602001606081526020016060815260200160608152602001606081526020016000151581525090565b610fa391905b80821115610f9f576000816000905550600101610f87565b5090565b90565b600082601f8301121515610fb957600080fd5b8151610fcc610fc782611679565b61164c565b9150818183526020840193506020810190508360005b838110156110125781518601610ff88882611132565b845260208401935060208301925050600181019050610fe2565b5050505092915050565b6000611028825161173a565b905092915050565b600082601f830112151561104357600080fd5b8151611056611051826116a1565b61164c565b9150808252602083016020830185838301111561107257600080fd5b61107d838284611771565b50505092915050565b600082601f830112151561109957600080fd5b81356110ac6110a7826116cd565b61164c565b915080825260208301602083018583830111156110c857600080fd5b6110d3838284611762565b50505092915050565b600082601f83011215156110ef57600080fd5b81516111026110fd826116cd565b61164c565b9150808252602083016020830185838301111561111e57600080fd5b611129838284611771565b50505092915050565b60006020828403121561114457600080fd5b61114e602061164c565b9050600082015167ffffffffffffffff81111561116a57600080fd5b61117684828501611030565b60008301525092915050565b600061118e8235611746565b905092915050565b6000602082840312156111a857600080fd5b60006111b68482850161101c565b91505092915050565b6000602082840312156111d157600080fd5b600082013567ffffffffffffffff8111156111eb57600080fd5b6111f784828501611086565b91505092915050565b6000806000806080858703121561121657600080fd5b600085015167ffffffffffffffff81111561123057600080fd5b61123c878288016110dc565b945050602085015167ffffffffffffffff81111561125957600080fd5b611265878288016110dc565b935050604085015167ffffffffffffffff81111561128257600080fd5b61128e878288016110dc565b925050606085015167ffffffffffffffff8111156112ab57600080fd5b6112b787828801610fa6565b91505092959194509250565b600080600080608085870312156112d957600080fd5b600085013567ffffffffffffffff8111156112f357600080fd5b6112ff87828801611086565b945050602085013567ffffffffffffffff81111561131c57600080fd5b61132887828801611086565b935050604061133987828801611182565b925050606085013567ffffffffffffffff81111561135657600080fd5b61136287828801611086565b91505092959194509250565b61137781611704565b82525050565b61138681611724565b82525050565b61139581611730565b82525050565b6113a481611750565b82525050565b60006113b5826116f9565b8084526113c9816020860160208601611771565b6113d2816117a4565b602085010191505092915050565b6000602082527f496e73746974757465206163636f756e7420646f6573206e6f742065786973746020830152604082019050919050565b6000602882527f4365727469666963617465207769746820676976656e20696420616c7265616460208301527f79206578697374730000000000000000000000000000000000000000000000006040830152606082019050919050565b6000601d82527f436572746966696361746520696420646f6573206e6f742065786973740000006020830152604082019050919050565b6000601482527f496e76616c696420436f7572736520696e6465780000000000000000000000006020830152604082019050919050565b60006020820190506114f7600083018461136e565b92915050565b6000602082019050611512600083018461138c565b92915050565b600060208201905061152d600083018461139b565b92915050565b600060e082019050818103600083015261154d818a6113aa565b9050818103602083015261156181896113aa565b9050818103604083015261157581886113aa565b9050818103606083015261158981876113aa565b9050818103608083015261159d81866113aa565b905081810360a08301526115b181856113aa565b90506115c060c083018461137d565b98975050505050505050565b600060208201905081810360008301526115e5816113e0565b9050919050565b6000602082019050818103600083015261160581611417565b9050919050565b6000602082019050818103600083015261162581611474565b9050919050565b60006020820190508181036000830152611645816114ab565b9050919050565b6000604051905081810181811067ffffffffffffffff8211171561166f57600080fd5b8060405250919050565b600067ffffffffffffffff82111561169057600080fd5b602082029050602081019050919050565b600067ffffffffffffffff8211156116b857600080fd5b601f19601f8301169050602081019050919050565b600067ffffffffffffffff8211156116e457600080fd5b601f19601f8301169050602081019050919050565b600081519050919050565b600073ffffffffffffffffffffffffffffffffffffffff82169050919050565b60008115159050919050565b6000819050919050565b60008115159050919050565b6000819050919050565b600061175b82611704565b9050919050565b82818337600083830152505050565b60005b8381101561178f578082015181840152602081019050611774565b8381111561179e576000848401525b50505050565b6000601f19601f83011690509190505600a265627a7a72305820f0035a195b4adf5128042fcf88fc4627e12557efc0e930e478ff204fc959132e6c6578706572696d656e74616cf50037",
  "source": "pragma solidity >0.4.20;\r\n\r\npragma experimental ABIEncoderV2;\r\n\r\nimport \"./Institution.sol\";\r\n\r\ncontract Certification {\r\n    // State Variables\r\n    address public owner;\r\n    Institution public institution;\r\n\r\n    // Mappings\r\n    mapping(bytes32 => Certificate) private certificates;\r\n\r\n    // Events\r\n    event certificateGenerated(bytes32 _certificateId);\r\n    event certificateRevoked(bytes32 _certificateId);\r\n\r\n    constructor(Institution _institution) public {\r\n        owner = msg.sender;\r\n        institution = _institution;\r\n    }\r\n\r\n    struct Certificate {\r\n        // Individual Info\r\n        string candidate_name;\r\n        string course_name;\r\n        string creation_date;\r\n\r\n        // Institute Info\r\n        string institute_name;\r\n        string institute_acronym;\r\n        string institute_link;\r\n\r\n        // Revocation status\r\n        bool revoked;\r\n    }\r\n\r\n    function stringToBytes32(string memory source) private pure returns (bytes32 result) {\r\n        bytes memory tempEmptyStringTest = bytes(source);\r\n        if (tempEmptyStringTest.length == 0) {\r\n            return 0x0;\r\n        }\r\n        assembly {\r\n                result := mload(add(source, 32))\r\n        }\r\n    }\r\n\r\n    function generateCertificate(\r\n        string memory _id,\r\n        string memory _candidate_name,\r\n        uint256 _course_index, \r\n        string memory _creation_date) public {\r\n        require(institution.checkInstitutePermission(msg.sender) == true, \"Institute account does not exist\");\r\n        bytes32 byte_id = stringToBytes32(_id);\r\n        // require(certificates[byte_id].creation_date == 0, \"Certificate with given id already exists\");\r\n        bytes memory tempEmptyStringNameTest = bytes(\r\n            certificates[byte_id].creation_date\r\n        );\r\n        require(\r\n            tempEmptyStringNameTest.length == 0,\r\n            \"Certificate with given id already exists\"\r\n        );\r\n        (string memory _institute_name, string memory _institute_acronym, string memory _institute_link, Institution.Course[] memory _institute_courses) = institution.getInstituteData(msg.sender);\r\n        require(_course_index >= 0 && _course_index < _institute_courses.length, \"Invalid Course index\");\r\n        string memory _course_name = _institute_courses[_course_index].course_name;\r\n        bool revocation_status = false;\r\n        certificates[byte_id] = Certificate(_candidate_name, _course_name, _creation_date, _institute_name, _institute_acronym, _institute_link, revocation_status);\r\n        emit certificateGenerated(byte_id);\r\n    }\r\n\r\n    function getData(string memory _id) public view returns(string memory, string memory, string memory, string memory, string memory, string memory, bool) {\r\n        bytes32 byte_id = stringToBytes32(_id);\r\n        Certificate memory temp = certificates[byte_id];\r\n        // require(certificates[byte_id].creation_date != 0, \"Certificate id does not exist!\");\r\n        bytes memory tempEmptyStringNameTest = bytes(\r\n            certificates[byte_id].creation_date\r\n        );\r\n        require(\r\n            tempEmptyStringNameTest.length != 0,\r\n            \"Certificate id does not exist\"\r\n        );\r\n        return (temp.candidate_name, temp.course_name, temp.creation_date, temp.institute_name, temp.institute_acronym, temp.institute_link, temp.revoked);\r\n    }\r\n\r\n    function revokeCertificate(string memory _id) public {\r\n        require(institution.checkInstitutePermission(msg.sender) == true, \"Institute account does not exist\");\r\n        bytes32 byte_id = stringToBytes32(_id);\r\n        bytes memory tempEmptyStringNameTest = bytes(\r\n            certificates[byte_id].creation_date\r\n        );\r\n        require(\r\n            tempEmptyStringNameTest.length != 0,\r\n            \"Certificate id does not exist\"\r\n        );\r\n        certificates[byte_id].revoked = true;\r\n        emit certificateRevoked(byte_id);\r\n    }\r\n}",
  "sourcePath": "C:\\gr5\\Certoshi\\contracts\\Certification.sol",
  "compiler": {
    "name": "solc",
    "version": "0.4.26+commit.4563c3fc.Emscripten.clang"
  },
  "schemaVersion": "2.0.3",
  "updatedAt": "2023-03-21T17:39:07.546Z"
}