{
  "contractName": "Institution",
  "abi": [
    {
      "constant": true,
      "inputs": [],
      "name": "owner",
      "outputs": [
        {
          "name": "",
          "type": "address"
        }
      ],
      "payable": false,
      "stateMutability": "view",
      "type": "function"
    },
    {
      "inputs": [],
      "payable": false,
      "stateMutability": "nonpayable",
      "type": "constructor"
    },
    {
      "anonymous": false,
      "inputs": [
        {
          "indexed": false,
          "name": "_instituteName",
          "type": "string"
        }
      ],
      "name": "instituteAdded",
      "type": "event"
    },
    {
      "constant": false,
      "inputs": [
        {
          "name": "_address",
          "type": "address"
        },
        {
          "name": "_institute_name",
          "type": "string"
        },
        {
          "name": "_institute_acronym",
          "type": "string"
        },
        {
          "name": "_institute_link",
          "type": "string"
        },
        {
          "components": [
            {
              "name": "course_name",
              "type": "string"
            }
          ],
          "name": "_institute_courses",
          "type": "tuple[]"
        }
      ],
      "name": "addInstitute",
      "outputs": [
        {
          "name": "",
          "type": "bool"
        }
      ],
      "payable": false,
      "stateMutability": "nonpayable",
      "type": "function"
    },
    {
      "constant": true,
      "inputs": [],
      "name": "getInstituteData",
      "outputs": [
        {
          "name": "",
          "type": "string"
        },
        {
          "name": "",
          "type": "string"
        },
        {
          "name": "",
          "type": "string"
        },
        {
          "components": [
            {
              "name": "course_name",
              "type": "string"
            }
          ],
          "name": "",
          "type": "tuple[]"
        }
      ],
      "payable": false,
      "stateMutability": "view",
      "type": "function"
    },
    {
      "constant": true,
      "inputs": [
        {
          "name": "_address",
          "type": "address"
        }
      ],
      "name": "getInstituteData",
      "outputs": [
        {
          "name": "",
          "type": "string"
        },
        {
          "name": "",
          "type": "string"
        },
        {
          "name": "",
          "type": "string"
        },
        {
          "components": [
            {
              "name": "course_name",
              "type": "string"
            }
          ],
          "name": "",
          "type": "tuple[]"
        }
      ],
      "payable": false,
      "stateMutability": "view",
      "type": "function"
    },
    {
      "constant": true,
      "inputs": [
        {
          "name": "_address",
          "type": "address"
        }
      ],
      "name": "checkInstitutePermission",
      "outputs": [
        {
          "name": "",
          "type": "bool"
        }
      ],
      "payable": false,
      "stateMutability": "view",
      "type": "function"
    }
  ],
  "bytecode": "0x608060405234801561001057600080fd5b50336000806101000a81548173ffffffffffffffffffffffffffffffffffffffff021916908373ffffffffffffffffffffffffffffffffffffffff160217905550611a92806100606000396000f30060806040526004361061006d576000357c0100000000000000000000000000000000000000000000000000000000900463ffffffff1680630334917c14610072578063086f5a14146100af5780637c0edcdf146100dd5780638da5cb5b1461011d578063b350ce3c14610148575b600080fd5b34801561007e57600080fd5b506100996004803603610094919081019061137d565b610185565b6040516100a69190611773565b60405180910390f35b3480156100bb57600080fd5b506100c4610535565b6040516100d494939291906117b0565b60405180910390f35b3480156100e957600080fd5b5061010460048036036100ff919081019061132b565b610924565b60405161011494939291906117b0565b60405180910390f35b34801561012957600080fd5b50610132610e40565b60405161013f9190611758565b60405180910390f35b34801561015457600080fd5b5061016f600480360361016a919081019061132b565b610e65565b60405161017c9190611773565b60405180910390f35b6000606060008060009054906101000a900473ffffffffffffffffffffffffffffffffffffffff1673ffffffffffffffffffffffffffffffffffffffff163373ffffffffffffffffffffffffffffffffffffffff1614151561021c576040517f08c379a000000000000000000000000000000000000000000000000000000000815260040161021390611851565b60405180910390fd5b600160008973ffffffffffffffffffffffffffffffffffffffff1673ffffffffffffffffffffffffffffffffffffffff1681526020019081526020016000206000018054600181600116156101000203166002900480601f0160208091040260200160405190810160405280929190818152602001828054600181600116156101000203166002900480156102f25780601f106102c7576101008083540402835291602001916102f2565b820191906000526020600020905b8154815290600101906020018083116102d557829003601f168201915b505050505091506000825114151561033f576040517f08c379a000000000000000000000000000000000000000000000000000000000815260040161033690611811565b60405180910390fd5b60008451111515610385576040517f08c379a000000000000000000000000000000000000000000000000000000000815260040161037c90611831565b60405180910390fd5b60606040519081016040528088815260200187815260200186815250600160008a73ffffffffffffffffffffffffffffffffffffffff1673ffffffffffffffffffffffffffffffffffffffff16815260200190815260200160002060008201518160000190805190602001906103fc9291906110ca565b5060208201518160010190805190602001906104199291906110ca565b5060408201518160020190805190602001906104369291906110ca565b50905050600090505b83518110156104f357600260008973ffffffffffffffffffffffffffffffffffffffff1673ffffffffffffffffffffffffffffffffffffffff168152602001908152602001600020848281518110151561049557fe5b9060200190602002015190806001815401808255809150509060018203906000526020600020016000909192909190915060008201518160000190805190602001906104e29291906110ca565b50505050808060010191505061043f565b7fcc7604fcd5c45ed3c7605e263d6c59f75739c368ef78098126fa9f54443b314f87604051610522919061178e565b60405180910390a1505095945050505050565b60608060608061054361114a565b6060600160003373ffffffffffffffffffffffffffffffffffffffff1673ffffffffffffffffffffffffffffffffffffffff16815260200190815260200160002060606040519081016040529081600082018054600181600116156101000203166002900480601f0160208091040260200160405190810160405280929190818152602001828054600181600116156101000203166002900480156106295780601f106105fe57610100808354040283529160200191610629565b820191906000526020600020905b81548152906001019060200180831161060c57829003601f168201915b50505050508152602001600182018054600181600116156101000203166002900480601f0160208091040260200160405190810160405280929190818152602001828054600181600116156101000203166002900480156106cb5780601f106106a0576101008083540402835291602001916106cb565b820191906000526020600020905b8154815290600101906020018083116106ae57829003601f168201915b50505050508152602001600282018054600181600116156101000203166002900480601f01602080910402602001604051908101604052809291908181526020018280546001816001161561010002031660029004801561076d5780601f106107425761010080835404028352916020019161076d565b820191906000526020600020905b81548152906001019060200180831161075057829003601f168201915b505050505081525050915081600001519050600081511115156107c5576040517f08c379a00000000000000000000000000000000000000000000000000000000081526004016107bc90611871565b60405180910390fd5b816000015182602001518360400151600260003373ffffffffffffffffffffffffffffffffffffffff1673ffffffffffffffffffffffffffffffffffffffff16815260200190815260200160002083935082925081915080805480602002602001604051908101604052809291908181526020016000905b8282101561090e5783829060005260206000200160206040519081016040529081600082018054600181600116156101000203166002900480601f0160208091040260200160405190810160405280929190818152602001828054600181600116156101000203166002900480156108f65780601f106108cb576101008083540402835291602001916108f6565b820191906000526020600020905b8154815290600101906020018083116108d957829003601f168201915b5050505050815250508152602001906001019061083d565b5050505090509550955095509550505090919293565b60608060608061093261114a565b60606000809054906101000a900473ffffffffffffffffffffffffffffffffffffffff1673ffffffffffffffffffffffffffffffffffffffff163373ffffffffffffffffffffffffffffffffffffffff16638da5cb5b6040518163ffffffff167c0100000000000000000000000000000000000000000000000000000000028152600401602060405180830381600087803b1580156109d057600080fd5b505af11580156109e4573d6000803e3d6000fd5b505050506040513d601f19601f82011682018060405250610a089190810190611354565b73ffffffffffffffffffffffffffffffffffffffff16141515610a60576040517f08c379a0000000000000000000000000000000000000000000000000000000008152600401610a5790611891565b60405180910390fd5b600160008873ffffffffffffffffffffffffffffffffffffffff1673ffffffffffffffffffffffffffffffffffffffff16815260200190815260200160002060606040519081016040529081600082018054600181600116156101000203166002900480601f016020809104026020016040519081016040528092919081815260200182805460018160011615610100020316600290048015610b445780601f10610b1957610100808354040283529160200191610b44565b820191906000526020600020905b815481529060010190602001808311610b2757829003601f168201915b50505050508152602001600182018054600181600116156101000203166002900480601f016020809104026020016040519081016040528092919081815260200182805460018160011615610100020316600290048015610be65780601f10610bbb57610100808354040283529160200191610be6565b820191906000526020600020905b815481529060010190602001808311610bc957829003601f168201915b50505050508152602001600282018054600181600116156101000203166002900480601f016020809104026020016040519081016040528092919081815260200182805460018160011615610100020316600290048015610c885780601f10610c5d57610100808354040283529160200191610c88565b820191906000526020600020905b815481529060010190602001808311610c6b57829003601f168201915b50505050508152505091508160000151905060008151111515610ce0576040517f08c379a0000000000000000000000000000000000000000000000000000000008152600401610cd7906118b1565b60405180910390fd5b816000015182602001518360400151600260008b73ffffffffffffffffffffffffffffffffffffffff1673ffffffffffffffffffffffffffffffffffffffff16815260200190815260200160002083935082925081915080805480602002602001604051908101604052809291908181526020016000905b82821015610e295783829060005260206000200160206040519081016040529081600082018054600181600116156101000203166002900480601f016020809104026020016040519081016040528092919081815260200182805460018160011615610100020316600290048015610e115780601f10610de657610100808354040283529160200191610e11565b820191906000526020600020905b815481529060010190602001808311610df457829003601f168201915b50505050508152505081526020019060010190610d58565b505050509050955095509550955050509193509193565b6000809054906101000a900473ffffffffffffffffffffffffffffffffffffffff1681565b6000610e6f61114a565b6060600160008573ffffffffffffffffffffffffffffffffffffffff1673ffffffffffffffffffffffffffffffffffffffff16815260200190815260200160002060606040519081016040529081600082018054600181600116156101000203166002900480601f016020809104026020016040519081016040528092919081815260200182805460018160011615610100020316600290048015610f555780601f10610f2a57610100808354040283529160200191610f55565b820191906000526020600020905b815481529060010190602001808311610f3857829003601f168201915b50505050508152602001600182018054600181600116156101000203166002900480601f016020809104026020016040519081016040528092919081815260200182805460018160011615610100020316600290048015610ff75780601f10610fcc57610100808354040283529160200191610ff7565b820191906000526020600020905b815481529060010190602001808311610fda57829003601f168201915b50505050508152602001600282018054600181600116156101000203166002900480601f0160208091040260200160405190810160405280929190818152602001828054600181600116156101000203166002900480156110995780601f1061106e57610100808354040283529160200191611099565b820191906000526020600020905b81548152906001019060200180831161107c57829003601f168201915b5050505050815250509150816000015190506000815111156110be57600192506110c3565b600092505b5050919050565b828054600181600116156101000203166002900490600052602060002090601f016020900481019282601f1061110b57805160ff1916838001178555611139565b82800160010185558215611139579182015b8281111561113857825182559160200191906001019061111d565b5b509050611146919061116c565b5090565b6060604051908101604052806060815260200160608152602001606081525090565b61118e91905b8082111561118a576000816000905550600101611172565b5090565b90565b600061119d82356119e5565b905092915050565b60006111b182516119e5565b905092915050565b600082601f83011215156111cc57600080fd5b81356111df6111da826118fe565b6118d1565b9150818183526020840193506020810190508360005b83811015611225578135860161120b88826112db565b8452602084019350602083019250506001810190506111f5565b5050505092915050565b600082601f830112151561124257600080fd5b813561125561125082611926565b6118d1565b9150808252602083016020830185838301111561127157600080fd5b61127c838284611a05565b50505092915050565b600082601f830112151561129857600080fd5b81356112ab6112a682611952565b6118d1565b915080825260208301602083018583830111156112c757600080fd5b6112d2838284611a05565b50505092915050565b6000602082840312156112ed57600080fd5b6112f760206118d1565b9050600082013567ffffffffffffffff81111561131357600080fd5b61131f8482850161122f565b60008301525092915050565b60006020828403121561133d57600080fd5b600061134b84828501611191565b91505092915050565b60006020828403121561136657600080fd5b6000611374848285016111a5565b91505092915050565b600080600080600060a0868803121561139557600080fd5b60006113a388828901611191565b955050602086013567ffffffffffffffff8111156113c057600080fd5b6113cc88828901611285565b945050604086013567ffffffffffffffff8111156113e957600080fd5b6113f588828901611285565b935050606086013567ffffffffffffffff81111561141257600080fd5b61141e88828901611285565b925050608086013567ffffffffffffffff81111561143b57600080fd5b611447888289016111b9565b9150509295509295909350565b61145d816119b9565b82525050565b600061146e8261198b565b808452602084019350836020820285016114878561197e565b60005b848110156114c05783830388526114a283835161172e565b92506114ad826119ac565b915060208801975060018101905061148a565b508196508694505050505092915050565b6114da816119d9565b82525050565b60006114eb826119a1565b8084526114ff816020860160208601611a14565b61150881611a47565b602085010191505092915050565b600061152182611996565b808452611535816020860160208601611a14565b61153e81611a47565b602085010191505092915050565b6000602382527f496e73746974757465207769746820746f6b656e20616c72656164792065786960208301527f73747300000000000000000000000000000000000000000000000000000000006040830152606082019050919050565b6000602082527f41746c65617374206f6e6520636f75727365206d7573742062652061646465646020830152604082019050919050565b6000603a82527f43616c6c6572206d75737420626520746865206f776e6572202d206f6e6c792060208301527f6f776e65722063616e2061646420616e20696e737469747574650000000000006040830152606082019050919050565b6000602182527f496e73746974757465206163636f756e7420646f6573206e6f7420657869737460208301527f21000000000000000000000000000000000000000000000000000000000000006040830152606082019050919050565b6000602a82527f496e636f727265637420736d61727420636f6e7472616374202620617574686f60208301527f72697a6174696f6e7321000000000000000000000000000000000000000000006040830152606082019050919050565b6000601982527f496e7374697475746520646f6573206e6f7420657869737421000000000000006020830152604082019050919050565b6000602083016000830151848203600086015261174b8282611516565b9150508091505092915050565b600060208201905061176d6000830184611454565b92915050565b600060208201905061178860008301846114d1565b92915050565b600060208201905081810360008301526117a881846114e0565b905092915050565b600060808201905081810360008301526117ca81876114e0565b905081810360208301526117de81866114e0565b905081810360408301526117f281856114e0565b905081810360608301526118068184611463565b905095945050505050565b6000602082019050818103600083015261182a8161154c565b9050919050565b6000602082019050818103600083015261184a816115a9565b9050919050565b6000602082019050818103600083015261186a816115e0565b9050919050565b6000602082019050818103600083015261188a8161163d565b9050919050565b600060208201905081810360008301526118aa8161169a565b9050919050565b600060208201905081810360008301526118ca816116f7565b9050919050565b6000604051905081810181811067ffffffffffffffff821117156118f457600080fd5b8060405250919050565b600067ffffffffffffffff82111561191557600080fd5b602082029050602081019050919050565b600067ffffffffffffffff82111561193d57600080fd5b601f19601f8301169050602081019050919050565b600067ffffffffffffffff82111561196957600080fd5b601f19601f8301169050602081019050919050565b6000602082019050919050565b600081519050919050565b600081519050919050565b600081519050919050565b6000602082019050919050565b600073ffffffffffffffffffffffffffffffffffffffff82169050919050565b60008115159050919050565b600073ffffffffffffffffffffffffffffffffffffffff82169050919050565b82818337600083830152505050565b60005b83811015611a32578082015181840152602081019050611a17565b83811115611a41576000848401525b50505050565b6000601f19601f83011690509190505600a265627a7a723058209ec07792c0960fa5049ea22ac2f87b3939a5e6d6a18c6437281473ceba59fea36c6578706572696d656e74616cf50037",
  "source": "pragma solidity >0.4.20;\r\n\r\npragma experimental ABIEncoderV2;\r\n\r\nimport \"./Certification.sol\";\r\n\r\ncontract Institution {\r\n    // State Variables\r\n    address public owner;\r\n\r\n    // Mappings\r\n    mapping(address => Institute) private institutes; // Institutes Mapping\r\n    mapping(address => Course[]) private instituteCourses; // Courses Mapping\r\n\r\n    // Events\r\n    event instituteAdded(string _instituteName);\r\n\r\n    constructor() public {\r\n        owner = msg.sender;\r\n    }\r\n\r\n    struct Course {\r\n        string course_name;\r\n        // Other attributes can be added\r\n    }\r\n\r\n    struct Institute {\r\n        string institute_name;\r\n        string institute_acronym;\r\n        string institute_link;\r\n    }\r\n\r\n    function stringToBytes32(string memory source)\r\n        private\r\n        pure\r\n        returns (bytes32 result)\r\n    {\r\n        bytes memory tempEmptyStringTest = bytes(source);\r\n        if (tempEmptyStringTest.length == 0) {\r\n            return 0x0;\r\n        }\r\n        assembly {\r\n            result := mload(add(source, 32))\r\n        }\r\n    }\r\n\r\n    function addInstitute(\r\n        address _address,\r\n        string memory _institute_name,\r\n        string memory _institute_acronym,\r\n        string memory _institute_link,\r\n        Course[] memory _institute_courses\r\n    ) public returns (bool) {\r\n        // Only owner can add institute\r\n        require(\r\n            msg.sender == owner,\r\n            \"Caller must be the owner - only owner can add an institute\"\r\n        );\r\n        bytes memory tempEmptyStringNameTest = bytes(\r\n            institutes[_address].institute_name\r\n        );\r\n        require(\r\n            tempEmptyStringNameTest.length == 0,\r\n            \"Institute with token already exists\"\r\n        );\r\n        require(\r\n            _institute_courses.length > 0,\r\n            \"Atleast one course must be added\"\r\n        );\r\n        institutes[_address] = Institute(\r\n            _institute_name,\r\n            _institute_acronym,\r\n            _institute_link\r\n        );\r\n        for (uint256 i = 0; i < _institute_courses.length; i++) {\r\n            instituteCourses[_address].push(_institute_courses[i]);\r\n        }\r\n        emit instituteAdded(_institute_name);\r\n    }\r\n\r\n    // Called by Institutions\r\n    function getInstituteData()\r\n        public\r\n        view\r\n        returns (\r\n            string memory,\r\n            string memory,\r\n            string memory,\r\n            Course[] memory\r\n        )\r\n    {\r\n        Institute memory temp = institutes[msg.sender];\r\n        bytes memory tempEmptyStringNameTest = bytes(temp.institute_name);\r\n        require(\r\n            tempEmptyStringNameTest.length > 0,\r\n            \"Institute account does not exist!\"\r\n        );\r\n        return (\r\n            temp.institute_name,\r\n            temp.institute_acronym,\r\n            temp.institute_link,\r\n            instituteCourses[msg.sender]\r\n        );\r\n    }\r\n\r\n    // Called by Smart Contracts\r\n    function getInstituteData(address _address)\r\n        public\r\n        view\r\n        returns (\r\n            string memory,\r\n            string memory,\r\n            string memory,\r\n            Course[] memory\r\n        )\r\n    {\r\n        require(Certification(msg.sender).owner() == owner, \"Incorrect smart contract & authorizations!\");\r\n        Institute memory temp = institutes[_address];\r\n        bytes memory tempEmptyStringNameTest = bytes(temp.institute_name);\r\n        require(\r\n            tempEmptyStringNameTest.length > 0,\r\n            \"Institute does not exist!\"\r\n        );\r\n        return (\r\n            temp.institute_name,\r\n            temp.institute_acronym,\r\n            temp.institute_link,\r\n            instituteCourses[_address]\r\n        );\r\n    }\r\n\r\n    function checkInstitutePermission(address _address)\r\n        public\r\n        view\r\n        returns (bool)\r\n    {\r\n        Institute memory temp = institutes[_address];\r\n        bytes memory tempEmptyStringNameTest = bytes(temp.institute_name);\r\n        if (tempEmptyStringNameTest.length > 0) {\r\n            return true;\r\n        } else {\r\n            return false;\r\n        }\r\n    }\r\n}\r\n",
  "sourcePath": "C:\\gr5\\Certoshi\\contracts\\Institution.sol",
  "compiler": {
    "name": "solc",
    "version": "0.4.26+commit.4563c3fc.Emscripten.clang"
  },
  "schemaVersion": "2.0.3",
  "updatedAt": "2023-03-21T17:39:07.549Z"
}